S00B0000506F492E7372656311
S113000012C019C018C017C016C015C014C013C040
S113001012C011C010C00FC00EC00DC01DC00BC057
S11300200AC009C008C011241FBECFE5D4E0DEBF5A
S1130030CDBF0DD048C0E4CF86B1836086B93E9A67
S1130040359A3D9A379A369A339A7894089581B3BB
S11300508FEF81BBF1DFFFCF1F920F920FB60F928C
S113006011242F933F934F935F936F937F938F93B9
S11300709F93EF9312BA45B142954695477050E06D
S11300801416150694F480E090E061E070E0E2B3A9
S11300909B01082E02C0220F331F0A94E2F72E2B75
S11300A022BB01968417950794F3EF919F918F914A
S11300B07F916F915F914F913F912F910F900FBE60
S10D00C00F901F901895F894FFCFDD
S9030000FC
